{
  "contractName": "PublicMessages",
  "abi": [
    {
      "inputs": [
        {
          "internalType": "uint256",
          "name": "_handlePrice",
          "type": "uint256"
        }
      ],
      "stateMutability": "nonpayable",
      "type": "constructor"
    },
    {
      "inputs": [
        {
          "internalType": "address",
          "name": "",
          "type": "address"
        }
      ],
      "name": "handles",
      "outputs": [
        {
          "internalType": "string",
          "name": "",
          "type": "string"
        }
      ],
      "stateMutability": "view",
      "type": "function",
      "constant": true
    },
    {
      "inputs": [
        {
          "internalType": "uint256",
          "name": "_handlePrice",
          "type": "uint256"
        }
      ],
      "name": "setHandlePrice",
      "outputs": [],
      "stateMutability": "nonpayable",
      "type": "function"
    },
    {
      "inputs": [],
      "name": "getHandlePrice",
      "outputs": [
        {
          "internalType": "uint256",
          "name": "",
          "type": "uint256"
        }
      ],
      "stateMutability": "view",
      "type": "function",
      "constant": true
    },
    {
      "inputs": [
        {
          "internalType": "string",
          "name": "_handle",
          "type": "string"
        }
      ],
      "name": "setHandle",
      "outputs": [],
      "stateMutability": "payable",
      "type": "function",
      "payable": true
    },
    {
      "inputs": [],
      "name": "getHandle",
      "outputs": [
        {
          "internalType": "string",
          "name": "",
          "type": "string"
        }
      ],
      "stateMutability": "view",
      "type": "function",
      "constant": true
    },
    {
      "inputs": [
        {
          "internalType": "string",
          "name": "_message",
          "type": "string"
        }
      ],
      "name": "sendMessage",
      "outputs": [],
      "stateMutability": "nonpayable",
      "type": "function"
    },
    {
      "inputs": [
        {
          "internalType": "uint256",
          "name": "_page",
          "type": "uint256"
        },
        {
          "internalType": "uint256",
          "name": "_count",
          "type": "uint256"
        }
      ],
      "name": "getMessages",
      "outputs": [
        {
          "components": [
            {
              "internalType": "address",
              "name": "sender",
              "type": "address"
            },
            {
              "internalType": "string",
              "name": "message",
              "type": "string"
            }
          ],
          "internalType": "struct PublicMessages.Message[]",
          "name": "",
          "type": "tuple[]"
        }
      ],
      "stateMutability": "view",
      "type": "function",
      "constant": true
    }
  ],
  "bytecode": "0x60806040523480156200001157600080fd5b506040516200162d3803806200162d8339818101604052810190620000379190620001d8565b33600160006101000a81548173ffffffffffffffffffffffffffffffffffffffff021916908373ffffffffffffffffffffffffffffffffffffffff160217905550806000819055506040518060400160405280600581526020017f6f776e6572000000000000000000000000000000000000000000000000000000815250600360003373ffffffffffffffffffffffffffffffffffffffff1673ffffffffffffffffffffffffffffffffffffffff16815260200190815260200160002090805190602001906200010992919062000111565b505062000298565b8280546200011f9062000214565b90600052602060002090601f0160209004810192826200014357600085556200018f565b82601f106200015e57805160ff19168380011785556200018f565b828001600101855582156200018f579182015b828111156200018e57825182559160200191906001019062000171565b5b5090506200019e9190620001a2565b5090565b5b80821115620001bd576000816000905550600101620001a3565b5090565b600081519050620001d2816200027e565b92915050565b600060208284031215620001f157620001f062000279565b5b60006200020184828501620001c1565b91505092915050565b6000819050919050565b600060028204905060018216806200022d57607f821691505b602082108114156200024457620002436200024a565b5b50919050565b7f4e487b7100000000000000000000000000000000000000000000000000000000600052602260045260246000fd5b600080fd5b62000289816200020a565b81146200029557600080fd5b50565b61138580620002a86000396000f3fe6080604052600436106100705760003560e01c80637ebea0d81161004e5780637ebea0d8146100f75780638a591c8a14610122578063b88012ef1461015f578063e16d31b21461018857610070565b80634541c5fb14610075578063469c8110146100915780634be8362d146100ba575b600080fd5b61008f600480360381019061008a9190610aae565b6101b3565b005b34801561009d57600080fd5b506100b860048036038101906100b39190610aae565b6102a1565b005b3480156100c657600080fd5b506100e160048036038101906100dc9190610b24565b6103ef565b6040516100ee9190610d46565b60405180910390f35b34801561010357600080fd5b5061010c6106fc565b6040516101199190610e0a565b60405180910390f35b34801561012e57600080fd5b5061014960048036038101906101449190610a81565b610705565b6040516101569190610d68565b60405180910390f35b34801561016b57600080fd5b5061018660048036038101906101819190610af7565b6107a5565b005b34801561019457600080fd5b5061019d61083f565b6040516101aa9190610d68565b60405180910390f35b60005434146101f7576040517f08c379a00000000000000000000000000000000000000000000000000000000081526004016101ee90610dea565b60405180910390fd5b600281511015801561020b5750600a815111155b61024a576040517f08c379a000000000000000000000000000000000000000000000000000000000815260040161024190610d8a565b60405180910390fd5b80600360003373ffffffffffffffffffffffffffffffffffffffff1673ffffffffffffffffffffffffffffffffffffffff168152602001908152602001600020908051906020019061029d929190610914565b5050565b6002600360003373ffffffffffffffffffffffffffffffffffffffff1673ffffffffffffffffffffffffffffffffffffffff16815260200190815260200160002080546102ed9061101e565b90501015610330576040517f08c379a000000000000000000000000000000000000000000000000000000000815260040161032790610daa565b60405180910390fd5b600260405180604001604052803373ffffffffffffffffffffffffffffffffffffffff16815260200183815250908060018154018082558091505060019003906000526020600020906002020160009091909190915060008201518160000160006101000a81548173ffffffffffffffffffffffffffffffffffffffff021916908373ffffffffffffffffffffffffffffffffffffffff16021790555060208201518160010190805190602001906103e9929190610914565b50505050565b60606002600360003373ffffffffffffffffffffffffffffffffffffffff1673ffffffffffffffffffffffffffffffffffffffff168152602001908152602001600020805461043d9061101e565b90501015610480576040517f08c379a000000000000000000000000000000000000000000000000000000000815260040161047790610daa565b60405180910390fd5b60006002805490509050600083826104989190610ee1565b90506000806000838811156104e35786856104b391906110ca565b915060009050600187856104c79190610f12565b866104d29190610f6c565b6104dc9190610f6c565b9250610531565b86915086886104f29190610f12565b856104fd9190610f6c565b905060018760018a61050f9190610f6c565b6105199190610f12565b866105249190610f6c565b61052e9190610f6c565b92505b60008267ffffffffffffffff81111561054d5761054c6111b7565b5b60405190808252806020026020018201604052801561058657816020015b61057361099a565b81526020019060019003908161056b5790505b5090506000808390505b8581116106eb57600281815481106105ab576105aa611188565b5b90600052602060002090600202016040518060400160405290816000820160009054906101000a900473ffffffffffffffffffffffffffffffffffffffff1673ffffffffffffffffffffffffffffffffffffffff1673ffffffffffffffffffffffffffffffffffffffff16815260200160018201805461062a9061101e565b80601f01602080910402602001604051908101604052809291908181526020018280546106569061101e565b80156106a35780601f10610678576101008083540402835291602001916106a3565b820191906000526020600020905b81548152906001019060200180831161068657829003601f168201915b5050505050815250508383815181106106bf576106be611188565b5b602002602001018190525081806106d590611081565b92505080806106e390611081565b915050610590565b508197505050505050505092915050565b60008054905090565b600360205280600052604060002060009150905080546107249061101e565b80601f01602080910402602001604051908101604052809291908181526020018280546107509061101e565b801561079d5780601f106107725761010080835404028352916020019161079d565b820191906000526020600020905b81548152906001019060200180831161078057829003601f168201915b505050505081565b600160009054906101000a900473ffffffffffffffffffffffffffffffffffffffff1673ffffffffffffffffffffffffffffffffffffffff163373ffffffffffffffffffffffffffffffffffffffff1614610835576040517f08c379a000000000000000000000000000000000000000000000000000000000815260040161082c90610dca565b60405180910390fd5b8060008190555050565b60606000600360003373ffffffffffffffffffffffffffffffffffffffff1673ffffffffffffffffffffffffffffffffffffffff168152602001908152602001600020805461088d9061101e565b80601f01602080910402602001604051908101604052809291908181526020018280546108b99061101e565b80156109065780601f106108db57610100808354040283529160200191610906565b820191906000526020600020905b8154815290600101906020018083116108e957829003601f168201915b505050505090508091505090565b8280546109209061101e565b90600052602060002090601f0160209004810192826109425760008555610989565b82601f1061095b57805160ff1916838001178555610989565b82800160010185558215610989579182015b8281111561098857825182559160200191906001019061096d565b5b50905061099691906109ca565b5090565b6040518060400160405280600073ffffffffffffffffffffffffffffffffffffffff168152602001606081525090565b5b808211156109e35760008160009055506001016109cb565b5090565b60006109fa6109f584610e4a565b610e25565b905082815260208101848484011115610a1657610a156111eb565b5b610a21848285610fdc565b509392505050565b600081359050610a3881611321565b92915050565b600082601f830112610a5357610a526111e6565b5b8135610a638482602086016109e7565b91505092915050565b600081359050610a7b81611338565b92915050565b600060208284031215610a9757610a966111f5565b5b6000610aa584828501610a29565b91505092915050565b600060208284031215610ac457610ac36111f5565b5b600082013567ffffffffffffffff811115610ae257610ae16111f0565b5b610aee84828501610a3e565b91505092915050565b600060208284031215610b0d57610b0c6111f5565b5b6000610b1b84828501610a6c565b91505092915050565b60008060408385031215610b3b57610b3a6111f5565b5b6000610b4985828601610a6c565b9250506020610b5a85828601610a6c565b9150509250929050565b6000610b708383610cfa565b905092915050565b610b8181610fa0565b82525050565b6000610b9282610e8b565b610b9c8185610eae565b935083602082028501610bae85610e7b565b8060005b85811015610bea5784840389528151610bcb8582610b64565b9450610bd683610ea1565b925060208a01995050600181019050610bb2565b50829750879550505050505092915050565b6000610c0782610e96565b610c118185610ebf565b9350610c21818560208601610feb565b610c2a816111fa565b840191505092915050565b6000610c4082610e96565b610c4a8185610ed0565b9350610c5a818560208601610feb565b610c63816111fa565b840191505092915050565b6000610c7b602c83610ed0565b9150610c868261120b565b604082019050919050565b6000610c9e601c83610ed0565b9150610ca98261125a565b602082019050919050565b6000610cc1602983610ed0565b9150610ccc82611283565b604082019050919050565b6000610ce4603683610ed0565b9150610cef826112d2565b604082019050919050565b6000604083016000830151610d126000860182610b78565b5060208301518482036020860152610d2a8282610bfc565b9150508091505092915050565b610d4081610fd2565b82525050565b60006020820190508181036000830152610d608184610b87565b905092915050565b60006020820190508181036000830152610d828184610c35565b905092915050565b60006020820190508181036000830152610da381610c6e565b9050919050565b60006020820190508181036000830152610dc381610c91565b9050919050565b60006020820190508181036000830152610de381610cb4565b9050919050565b60006020820190508181036000830152610e0381610cd7565b9050919050565b6000602082019050610e1f6000830184610d37565b92915050565b6000610e2f610e40565b9050610e3b8282611050565b919050565b6000604051905090565b600067ffffffffffffffff821115610e6557610e646111b7565b5b610e6e826111fa565b9050602081019050919050565b6000819050602082019050919050565b600081519050919050565b600081519050919050565b6000602082019050919050565b600082825260208201905092915050565b600082825260208201905092915050565b600082825260208201905092915050565b6000610eec82610fd2565b9150610ef783610fd2565b925082610f0757610f0661112a565b5b828204905092915050565b6000610f1d82610fd2565b9150610f2883610fd2565b9250817fffffffffffffffffffffffffffffffffffffffffffffffffffffffffffffffff0483118215151615610f6157610f606110fb565b5b828202905092915050565b6000610f7782610fd2565b9150610f8283610fd2565b925082821015610f9557610f946110fb565b5b828203905092915050565b6000610fab82610fb2565b9050919050565b600073ffffffffffffffffffffffffffffffffffffffff82169050919050565b6000819050919050565b82818337600083830152505050565b60005b83811015611009578082015181840152602081019050610fee565b83811115611018576000848401525b50505050565b6000600282049050600182168061103657607f821691505b6020821081141561104a57611049611159565b5b50919050565b611059826111fa565b810181811067ffffffffffffffff82111715611078576110776111b7565b5b80604052505050565b600061108c82610fd2565b91507fffffffffffffffffffffffffffffffffffffffffffffffffffffffffffffffff8214156110bf576110be6110fb565b5b600182019050919050565b60006110d582610fd2565b91506110e083610fd2565b9250826110f0576110ef61112a565b5b828206905092915050565b7f4e487b7100000000000000000000000000000000000000000000000000000000600052601160045260246000fd5b7f4e487b7100000000000000000000000000000000000000000000000000000000600052601260045260246000fd5b7f4e487b7100000000000000000000000000000000000000000000000000000000600052602260045260246000fd5b7f4e487b7100000000000000000000000000000000000000000000000000000000600052603260045260246000fd5b7f4e487b7100000000000000000000000000000000000000000000000000000000600052604160045260246000fd5b600080fd5b600080fd5b600080fd5b600080fd5b6000601f19601f8301169050919050565b7f506c65617365206769766520612068616e646c652077697468203220746f203160008201527f3020636861726163746572730000000000000000000000000000000000000000602082015250565b7f506c656173652063726561746520612068616e646c6520666972737400000000600082015250565b7f4f6e6c7920746865206f776e6572206f662074686520636f6e7472616374206860008201527f6173206163636573730000000000000000000000000000000000000000000000602082015250565b7f506c6561736520706179207468652072657175697265642068616e646c65207060008201527f7269636520746f20736574757020612068616e646c6500000000000000000000602082015250565b61132a81610fa0565b811461133557600080fd5b50565b61134181610fd2565b811461134c57600080fd5b5056fea264697066735822122078a471661dc35e66a63d9672c20c7bd091b242f00c9b447cc957903e1300b81964736f6c63430008070033",
  "immutableReferences": {},
  "source": "// SPDX-License-Identifier: MIT\npragma solidity 0.8.7;\n\ncontract PublicMessages {\n  struct Message {\n    address sender;\n    string message;\n  }\n\n  uint256 handlePrice;\n  address private owner;\n  Message[] private chat;\n\n  mapping(address => string) public handles;\n\n  constructor(uint256 _handlePrice) {\n    owner = msg.sender;\n    handlePrice = _handlePrice;\n    handles[msg.sender] = 'owner';\n  }\n\n  modifier onlyOwner() {\n    require(msg.sender == owner, 'Only the owner of the contract has access');\n    _;\n  }\n\n  modifier requireHandle() {\n    require(bytes(handles[msg.sender]).length >= 2, 'Please create a handle first');\n    _;\n  }\n\n  function setHandlePrice(uint256 _handlePrice) external onlyOwner {\n    handlePrice = _handlePrice;\n  }\n\n  function getHandlePrice() public view returns (uint256) {\n    return handlePrice;\n  }\n\n  function setHandle(string memory _handle) public payable {\n    require(msg.value == handlePrice, 'Please pay the required handle price to setup a handle');\n\n    require(bytes(_handle).length >= 2 && bytes(_handle).length <= 10, 'Please give a handle with 2 to 10 characters');\n\n    handles[msg.sender] = _handle;\n  }\n\n  function getHandle() public view returns (string memory) {\n    string memory handle = handles[msg.sender];\n\n    return handle;\n  }\n\n  function sendMessage(string memory _message) public requireHandle {\n    chat.push(Message({ sender: msg.sender, message: _message }));\n  }\n\n  function getMessages(uint256 _page, uint256 _count) public view requireHandle returns (Message[] memory) {\n    uint256 len = chat.length;\n    uint256 maxPages = len / _count;\n\n    uint256 end;\n    uint256 size;\n    uint256 start;\n\n    if (_page > maxPages) {\n      size = len % _count;\n      start = 0;\n      end = len - maxPages * _count - 1;\n    } else {\n      size = _count;\n      start = len - (_page * _count);\n      end = len - (_page - 1) * _count - 1;\n    }\n\n    Message[] memory chatToReturn = new Message[](size);\n\n    uint256 counter = 0;\n    for (uint256 i = start; i <= end; i++) {\n      chatToReturn[counter] = chat[i];\n      counter++;\n    }\n\n    return chatToReturn;\n  }\n}\n",
  "sourcePath": "/media/ozes/26ECD8C8ECD89401/Programming/PROJECTS/Message DApp/contract/contracts/Messages.sol",
  "compiler": {
    "name": "solc",
    "version": "0.8.7+commit.e28d00a7.Emscripten.clang"
  },
  "schemaVersion": "3.4.3",
  "updatedAt": "2021-10-04T14:57:28.917Z",
  "networkType": "ethereum",
  "devdoc": {
    "kind": "dev",
    "methods": {},
    "version": 1
  },
  "userdoc": {
    "kind": "user",
    "methods": {},
    "version": 1
  }
}